S12300000C949C0F0C94CD0F0C94CD0F0C94CD0F0C94CD0F0C94CD0F0C94CD0F0C94CD0F2D
S12300200C94CD0F0C94CD0F0C94CD0F0C94CD0F0C94CD0F0C9478DD0C94CD0F0C94CD0F63
S12300400C94CD0F0C948C8B0C94CD0F0C94CD0F0C94CD0F0C94CD0F0C949F9F0C9433D7F1
S12300600C94CD0F0C9410140C94CD0F0C94CD0F0C94CD0F0C94CD0F0C94CD0F0C94CD0F54
S12300800C94CD0F0C94CD0F0C94CD0F0C94CD0F0C94CD0F0C94CD0F0C94CD0F0C94CD0F7C
S12300A00C94CD0F0C94CD0F0C94CD0F0C94CD0F0C94CD0F0C94CD0F0C94CD0F0C94CD0F5C
S12300C00C94CD0F0C94CD0F0C94CD0F0C94CD0F0C94CD0F0C94CD0F0C94CD0F0C94CD0F3C
S12300E00C94CD0FFD9F0CA028A037A051A060A07AA07EA080A084A08CA074D879D87ED80D
S123010088D892D80BD99CD8A4D8ACD8B6D8C0D8CAD8D9D8E3D80BD9EDD8F7D801D92DD92D
S123012030D91FD923D929D967D934D938D93ED942D946D94CD950D954D967D95AD95ED9E8
S123014062D9084AD73B3BCE016E84BCBFFDC12F3D6C74319ABD56833DDA3D00C77F11BEB1
S1230160D9E4BB4C3E916BAAAABE000000803F05A84CCDB2D44EB93836A9020C50B9918614
S123018088083CA6AAAA2ABE000000803F0048617264636F6465642044656661756C74206B
S12301A053657474696E6773204C6F61646564002044002049002020204D33303120500003
S12301C05049442073657474696E67733A00205A0020590020204D323036205800486F6DBF
S12301E065206F666673657420286D6D293A00204500205A002058002042002054002020FD
S12302004D323035205300416476616E636564207661726961626C65733A20533D4D696E86
S123022020666565647261746520286D6D2F73292C20543D4D696E2074726176656C206638
S12302406565647261746520286D6D2F73292C20423D6D696E696D756D207365676D656E6D
S1230260742074696D6520286D73292C20583D6D6178696D756D205859206A65726B202822
S12302806D6D2F73292C20205A3D6D6178696D756D205A206A65726B20286D6D2F73292C55
S12302A02020453D6D6178696D756D2045206A65726B20286D6D2F73290020540020204D5B
S12302C0323034205300416363656C65726174696F6E3A20533D616363656C657261746950
S12302E06F6E2C20543D7265747261637420616363656C65726174696F6E00204500205A62
S12303000020590020204D3230312058004D6178696D756D20416363656C65726174696F6E
S12303206E20286D6D2F7332293A00204500205A0020590020204D3230332058004D6178DA
S1230340696D756D2066656564726174657320286D6D2F73293A00204500205A002059008F
S123036020204D393220580053746570732070657220756E69743A0053544F505045442E2C
S123038020005072696E7465722073746F707065642064756520746F206572726F72732EEA
S12303A02046697820746865206572726F7220616E6420757365204D39393920746F2072DA
S12303C06573746172742E202854656D70657261747572652069732072657365742E2053A2
S12303E065742069742061667465722072657374617274696E6729004B494C4C45442E2062
S1230400005072696E7465722068616C7465642E206B696C6C28292063616C6C6564210071
S12304206F6B00526573656E643A20000A00207A3A200020793A200020783A200042656435
S1230440002200556E6B6E6F776E20636F6D6D616E643A2022004368616E67652066696C6A
S1230460616D656E74007A5F6D61783A20007A5F6D696E3A2000795F6D61783A2000795F23
S12304806D696E3A2000785F6D61783A2000785F6D696E3A2000205A3A0020593A00204304
S12304A06F756E7420583A200020453A00205A3A0020593A00583A004649524D57415245AB
S12304C05F4E414D453A4D61726C696E2056313B20537072696E7465722F6772626C206D3F
S12304E0617368757020666F722067656E36204649524D574152455F55524C3A6874747017
S1230500733A2F2F6769746875622E636F6D2F4572696B5A616C6D2F4D61726C696E2F20AD
S123052050524F544F434F4C5F56455253494F4E3A312E30204D414348494E455F54595086
S1230540453A4D6967626F742033442045585452554445525F434F554E543A312055554926
S1230560443A30303030303030302D303030302D303030302D303030302D30303030303065
S12305803030303030300A004D6967626F74203344204F66662E004D6967626F74203344D2
S12305A0205072696E7465722E0042656420646F6E652E0020423A0020453A00543A0042FB
S12305C065642048656174696E672E0048656174696E6720646F6E652E0020573A00204576
S12305E03A00543A0048656174696E672E2E2E002042403A0020403A00202F003A00205472
S123060000202F0020423A00202F006F6B20543A000A0A005374616E646172642044657690
S1230620696174696F6E3A20000A004D65616E3A20000A002020207A3A200000793A2000E2
S1230640783A20003F537065636966696564206E756D626572206F66206C65677320696E99
S1230660206D6F76656D656E74206E6F7420706C61757361626C652E0A003F537065636936
S123068066696564205920706F736974696F6E206F7574206F662072616E67652E0A003F9F
S12306A0537065636966696564205820706F736974696F6E206F7574206F662072616E6768
S12306C0652E0A003F5370656369666965642073616D706C652073697A65206E6F74207030
S12306E06C61757361626C652E0A0046756C6C20737570706F72742061743A206874747096
S12307003A2F2F33647072696E74626F6172642E636F6D2F666F72756D2E7068700A004DDF
S12307203438205A2D50726F6265205265706561746162696C69747920746573742E2020ED
S12307402056657273696F6E20322E30300A003F566572626F7365204C6576656C206E6F7B
S12307607420706C61757361626C652E0A002569206D696E2C2025692073656300456E64B2
S12307802066696C65206C69737400426567696E2066696C65206C697374004E6F206D6F7F
S12307A076652E004D6967626F74203344205072696E7465722E00526573756D696E672097
S12307C07072696E74005761697420666F7220757365722E2E2E000A00205A3A200020592C
S12307E03A200020583A20004265640020643A200020623A200045716E20636F6566666954
S12308006369656E74733A20613A2000486F6D6520582F59206265666F7265205A00486FEC
S12308206D6520582F59206265666F7265205A00536C6565702E2E2E00256920686F7572E6
S123084073202569206D696E7574657300446F6E65207072696E74696E672066696C65007D
S123086053544F505045442E20005072696E7465722073746F707065642064756520746FA3
S1230880206572726F72732E2046697820746865206572726F7220616E6420757365204D4A
S12308A039393920746F20726573746172742E202854656D70657261747572652069732041
S12308C072657365742E205365742069742061667465722072657374617274696E672900BC
S12308E04E6F204C696E65204E756D626572207769746820636865636B73756D2C204C61BE
S12309007374204C696E653A20004E6F20436865636B73756D2077697468206C696E652016
S12309206E756D6265722C204C617374204C696E653A2000636865636B73756D206D69738C
S12309406D617463682C204C617374204C696E653A20004C696E65204E756D62657220690A
S123096073206E6F74204C617374204C696E65204E756D6265722B312C204C617374204C02
S1230980696E653A20004D31313000446F6E6520736176696E672066696C652E006F6B00E8
S12309A04D3239002020506C616E6E657242756666657242797465733A200020467265650E
S12309C0204D656D6F72793A20004D6172203133203230313700436F6D70696C65643A200B
S12309E0005A766970657238392C204D6967626F742053746E6472646175746F206C766C9E
S1230A0000207C20417574686F723A20004D617220313320323031372031343A35343A3425
S1230A203400204C61737420557064617465643A2000312E302E30004D61726C696E002019
S1230A40536F66747761726520526573657400205761746368646F67205265736574002090
S1230A6042726F776E206F7574205265736574002045787465726E616C2052657365740049
S1230A80506F7765725570007374617274002200656E717565696E672022002200656E712C
S1230AA07565696E67202200FFFFFF0000A0400000A0400000004000005C4300008C43006D
S1230AC0004843000030C1000024C20000000000005C4300008C43000048430000000000B7
S1230AE0000000000000006563686F3A004572726F723A007C3C3E5E2B3D3F2F5B5D3B2C8C
S1230B002A225C004D383420582059205A20450043616E6E6F7420656E7465722073756295
S1230B206469723A20004D3234004D3233202573006175746F25692E67006572726F7220D5
S1230B4077726974696E6720746F2066696C65004E6F74205344207072696E74696E670057
S1230B602F005344207072696E74696E67206279746520002E0044656C6574696F6E206644
S1230B8061696C65642C2046696C653A200046696C652064656C657465643A002E006F706E
S1230BA0656E206661696C65642C2046696C653A200057726974696E6720746F2066696C71
S1230BC0653A20002E006F70656E206661696C65642C2046696C653A20002E006F70656EE7
S1230BE0206661696C65642C2046696C653A200046696C652073656C6563746564002053EA
S1230C00697A653A200046696C65206F70656E65643A20002E006F70656E206661696C65B8
S1230C20642C2046696C653A20004E6F772066726573682066696C653A20004E6F772064E8
S1230C406F696E672066696C653A20002220706F73002220706172656E743A220053554223
S1230C60524F5554494E452043414C4C207461726765743A2200747279696E6720746F204B
S1230C8063616C6C207375622D67636F64652066696C6573207769746820746F6F206D61AC
S1230CA06E79206C6576656C732E204D4158206C6576656C2069733A0053442063617264AB
S1230CC0206F6B006F70656E526F6F74206661696C656400766F6C756D652E696E697420A1
S1230CE06661696C656400534420696E6974206661696C0020746F6F206C6F6E6720657825
S1230D0074727573696F6E2070726576656E7465640020636F6C6420657874727573696F69
S1230D206E2070726576656E74656400656E6473746F7073206869743A205A00205A3A0017
S1230D40656E6473746F7073206869743A20590020593A00656E6473746F7073206869747F
S1230D603A20580020583A00656E6473746F7073206869743A200024F4D43050C38E20C23D
S1230D80A24017828B7011127A910D816CD90AA861E108C7586607615143061E4B5D05C1C9
S1230DA045A7041A411104093D9803713931034036DB0265339102D4305402802E1D026308
S1230DC02CEE01752AC501B028A001102781018F2564012B244B01E0223401AC211F018DF8
S1230DE0200D01801FFC00841EED00971DDF00B81CD200E61BC600201BBC00641AB200B2BE
S1230E0019A8000A19A0006A189900D117910040178B00B516840031167E00B31579003A45
S1230E20157300C7146F0058146A00EE1366008813630025135E00C7125B006C12570015ED
S1230E40125400C111510070114F0021114B00D61049008D1047004610440002104200C0F7
S1230E600F4000800F3E00420F3C00060F3B00CB0E3800930E37005C0E3500270E3400F391
S1230E800D3200C10D3100900D3000600D2E00320D2D00050D2C00D90C2B00AE0C29008586
S1230EA00C29005C0C2700350C27000E0C2600E80B2400C40B2400A00B23007D0B23005AE5
S1230EC00B2100390B2100180B2000F80A1F00D90A1E00BB0A1E009D0A1D00800A1D006367
S1230EE00A1C00470A1B002C0A1B00110A1A00F7091A00DD091900C4091900AB0919009278
S1230F000917007B091800630917004C09160036091600200916000A091500F5081500E075
S1230F20081400CC081400B8081400A4081400900813007D0812006B081300580812004695
S1230F4008120034081100230811001208110001081100F0071000E0071000D0071000C000
S1230F60071000B0070F00A107100091070E0083070F0074070F0065070E0057070E0049E0
S1230F80070E003B070D002E070E0020070D0013070D0006070D00F9060C00ED060D00E046
S1230FA0060C00D4060C00C8060C00BC060C00B0060C00A4060B0099060C008D060B00824B
S1230FC0060B0077060B006C060B0061060A0057060B004C060A0042060A0038060A002EFA
S1230FE0060A0024060A001A060A001006090007060A00FD050900F4050900EB050900E261
S1231000050900D9050900D0050900C7050900BE050900B5050800AD050800A50509009C8D
S1231020050800940508008C050800840508007C050800740508006C050700650508005D83
S1231040050700560508004E050700470507004005080038050700310507002A0507002349
S12310600507001C050600160507000F0507000805060002050700FB040600F5040700EEE8
S1231080040600E8040600E2040700DB040600D5040600CF040600C9040600C3040600BD69
S12310A0040600B7040600B1040500AC040600A6040600A00405009B0406009504050090C5
S12310C00406008A04050085040500800406007A04050075040500700405006B0405006603
S12310E0040500610405005C04050057040500520405004D04050048040500430405003E28
S12311000404003A04050035040500300404002C04050027040400230405001E0404001A3A
S123112004040016040500110404000D040400090405000404040000040400FC030400F835
S1231140030400F4030400F0030400EC030400E8030400E4030400E0030400DC030400D823
S1231160030400D4030400D0030400CC030400C8030300C503030024F404D9201BC40C5CEA
S12311800E9804C4095F0265077101F405F900FB04B30048048700C103690058035500033E
S12311A0034500BE023A008402310053022A002902250004022000E4011C00C8011900AFAB
S12311C00117009801140084011300710110006101100051010E0043010D0036010B002B9C
S12311E0010B0020010B00150109000C01090003010800FB000800F3000800EB000700E49E
S1231200000600DE000600D8000600D2000600CC000500C7000500C2000500BD000400B94C
S1231220000400B5000400B1000400AD000400A9000400A5000300A20003009F0004009B4F
S1231240000300980003009500020093000300900003008D0002008B0003008800020086FF
S123126000020084000300810002007F0002007D0002007B00020079000200770001007678
S12312800002007400020072000100710002006F0002006D0001006C0002006A00010069CB
S12312A0000200670001006600010065000100640002006200010061000100600001005F08
S12312C00002005D0001005C0001005B0001005A0001005900010058000100570001005635
S12312E0000100550001005400010053000000530001005200010051000100500001004F52
S12313000001004E0000004E0001004D0001004C0001004B0000004B0001004A0001004965
S1231320000100480000004800010047000100460000004600010045000000450001004473
S1231340000100430000004300010042000000420001004100000041000100400001003F79
S12313600000003F0001003E0000003E0001003D0000003D0001003C0000003C0000003C7D
S12313800001003B0000003B0001003A0000003A0001003900000039000100380000003879
S12313A0000000380001003700000037000100360000003600000036000100350000003574
S12313C000000035000100340000003400000034000100330000003300000033000100326A
S12313E0000000320000003200010031000000310000003100010030000000300000003060
S12314000001002F0000002F0000002F0000002F0001002E0000002E0000002E0001002D52
S12314200000002D0000002D0000002D0001002C0000002C0000002C0000002C0001002B44
S12314400000002B0000002B0000002B0001002A0000002A0000002A0000002A0001002934
S1231460000000290000002900000029000000290001002800000028000000280000002823
S123148000000028000100270000002700000027000000270000002700010026000000260F
S12314A00000002600000026000000260001002500000025000000250000002500000025FC
S12314C00000002500010024000000240000002400000024000000240001002300000023E7
S12314E00000002300000023000000230000002300000023000100220000002200000022D2
S12315000000002200000022000000220001002100000021000000210000002100000021BB
S12315200000002100000021000100200000002000000020000000200000002000000020A4
S123154000000020000000200001001F0000001F0000001F0000001F0000001F0000001F8C
S12315600000001F0001001E0000001E0000001E0000001E0000004572723A204D41585412
S1231580454D50204245440054656D70657261747572652068656174656420626564207383
S12315A077697463686564206F66662E204D415854454D502074726967676572656420215C
S12315C021004572723A204D494E54454D50003A20457874727564657220737769746368EA
S12315E06564206F66662E204D494E54454D50207472696767657265642021004572723ADA
S1231600204D415854454D50003A204578747275646572207377697463686564206F666607
S12316202E204D415854454D5020747269676765726564202100544845524D414C2052554A
S12316404E4157415900546865726D616C2052756E617761792C2073797374656D2073743A
S12316606F7070656421204865617465725F49443A200048656174696E67206661696C658D
S12316806400202D20496E76616C6964206578747275646572206E756D62657220210050E1
S12316A04944204175746F74756E652066696E6973686564212050757420746865206C61F2
S12316C07374204B702C204B6920616E64204B6420636F6E7374616E74732066726F6D2031
S12316E061626F766520696E746F20436F6E66696775726174696F6E2E68005049442041B3
S123170075746F74756E65206661696C6564212074696D656F75740020403A006F6B2054FC
S12317203A006F6B20423A00504944204175746F74756E65206661696C6564212054656DB7
S1231740706572617475726520746F6F206869676800204B643A2000204B693A2000204B29
S1231760703A200020436C61737369632050494420002054753A2000204B753A2000206D92
S123178061783A2000206D696E3A200020643A200020626961733A200070012C0190012707
S12317A001B0012201C0011D01F00118011002130130020E016002090190020401C002FF3C
S12317C0000003FA004003F5008003F000D003EB002004E6007004E100E004DC004005D764
S12317E000C005D2004006CD00D006C8008007C3003008BE00F008B900C009B400B00AAFC6
S123180000B00BAA00D00CA500000EA000500F9B00C01096005012910000148C00C01587E1
S123182000B0178200B0197D00D01B7800001E730040206E0090226900F024640040275FFA
S12318400090295A00E02B5500102E500020304B0010324600E033410090353C001037378D
S12318600070383200A0392D00B03A2800A03B2300603C1E00103D1900903D1400103E0F16
S123188000703E0A00C03E0500003F0000534420434152442052656D6F76656400534420D0
S12318A04341524420496E736572746564004D33303020533639382050323030004D333000
S12318C03020533635392050323030002D2D3A2D2D002D2D2D005344002059000120000114
S12318E02000426162797374657070696E67205A004D363030004368616E67652066696CDE
S1231900616D656E74004261627973746570205A00466C6F77203000466C6F7720300046E4
S12319206C6F7700466C6F770046616E2073706565640046616E2073706565640042656422
S123194000426564004E6F7A7A6C65004E6F7A7A6C65005370656564005370656564004D45
S123196061696E005072656865617420504C4120426564005072656865617420504C412054
S1231980310050726570617265005072656865617420414253204265640050726568656104
S12319A074204142532031005072657061726500580059005A0045787472756465720045F6
S12319C078747275646572004D6F7665205A004D6F76652059004D6F76652058004D6F7693
S12319E0652061786973004D6F766520302E316D6D004D6F766520316D6D004D6F76652010
S1231A0031306D6D0050726570617265004D6F76652061786973004D38300053776974638D
S1231A206820706F776572206F6E004D38310053776974636820706F776572206F66660020
S1231A40436F6F6C646F776E005072656865617420414253005072656865617420504C41B8
S1231A600053657420686F6D65206F6666736574730047323800486F6D6520616C6C20613F
S1231A80786973004D38340044697361626C65207374657070657273004D61696E004265BF
S1231AA06400426564004E6F7A7A6C65004E6F7A7A6C650046616E207370656564004661C2
S1231AC06E2073706565640054656D70657261747572650042656400426564004E6F7A7A0E
S1231AE06C65004E6F7A7A6C650046616E2073706565640046616E2073706565640054654A
S1231B006D706572617475726500507265686561742041425320636F6E6600507265686573
S1231B20617420504C4120636F6E66005049442D43005049442D43005049442D4400504988
S1231B40442D44005049442D49005049442D49005049442D50005049442D500020022046EA
S1231B606163740020022046616374002002204D6178002002204D6178002002204D696E33
S1231B80002002204D696E004F6666004F6E20004F6666004F6E20004175746F74656D709C
S1231BA00046616E2073706565640046616E2073706565640042656400426564004E6F7A48
S1231BC07A6C65004E6F7A7A6C6500436F6E74726F6C004573746570732F6D6D00457374AA
S1231BE06570732F6D6D005A73746570732F6D6D005A73746570732F6D6D00597374657057
S1231C00732F6D6D005973746570732F6D6D005873746570732F6D6D005873746570732F6D
S1231C206D6D00412D7265747261637400412D7265747261637400416D6178206500416D46
S1231C406178206500416D6178207A00416D6178207A00416D6178207900416D61782079A0
S1231C6000416D6178207800416D61782078005654726176206D696E005654726176206D4B
S1231C80696E00566D696E00566D696E00566D6178206500566D6178206500566D61782037
S1231CA07A00566D6178207A00566D6178207900566D6178207900566D6178207800566D0F
S1231CC0617820780056652D6A65726B0056652D6A65726B00567A2D6A65726B00567A2DC1
S1231CE06A65726B005678792D6A65726B005678792D6A65726B00416363656C0041636315
S1231D00656C005A204F6666736574005A204F666673657400436F6E74726F6C0052657321
S1231D20746F7265206661696C73616665004D6F74696F6E0054656D706572617475726586
S1231D40004D61696E004D383420582059205A2045004D3234004D323320257300052E2EF3
S1231D60004D61696E004E6F2053442063617264005072696E742066726F6D2053440053C1
S1231D80746F70207072696E7400526573756D65207072696E740050617573652070726978
S1231DA06E7400436F6E74726F6C00507265706172650054756E6500496E666F20736372FD
S1231DC065656E000A00207A3A200020793A200020783A200000000A0B02090C0D0E08078E
S1231DE00304010000000000000000000000000000000000000000000000000000000000D7
S1231E00001211100000000000000000000000000000000000000000000000010210202038
S1231E2008081020401020408002010201080402010102040810204080804020100804021C
S1231E4001800402018040201008040201080402010102040810204080010204081020406A
S1231E608005050505070508080808020202020A0A08080404040401010101010101010357
S1231E8003030303030303040707070C0C0C0C0C0C0C0C0202020206060606060606060B6D
S1231EA00B0B0B0B0B0B0B000020002300260029002C002F0032000001000003010601099D
S1231EC00100002200250028002B002E003100340002010000050108010B0100002100246D
S1231EE00027002A002D003000330001010000040107010A01024E414E494E495459494EE0
S1231F0046CDCCCC3D0AD7233C17B7D13877CC2B329595E6241FB14F0A000020410000C898
S1231F204200401C4620BCBE4CCA1B0E5AAEC59D74000D4975C3114911241FBECFEFD1E297
S1231F40DEBFCDBF00E00CBF15E0A0E0B2E0E6EBF4ED01E00BBF02C007900D92A432B107BF
S1231F60D9F723E1A4E2B5E001C01D92AF30B207E1F71FE1C6E3DFE100E006C022970109BC
S1231F80FE010BBF0E94E5E2C233D10780E00807A9F70E94D8DD0C944AEA0C940000CF9302
S1231FA0DF93C7EEDAE0FE018491882341F09091C00095FFFCCF8093C6003196F5CFE8E6DA
S1231FC0F3E08491882341F09091C00095FFFCCF8093C6003196F5CF8091C00085FFFCCF75
S1231FE08AE08093C600FE018491E7EEFAE0882349F09091C00095FFFCCF8093C600319613
S12320008491F5CF40918E1150918F11609190117091911180E693E00E942C1A4091921188
S12320205091931160919411709195118DE593E00E942C1A40919611509197116091981172
S1232040709199118AE593E00E942C1A40919A1150919B1160919C1170919D1187E593E0D2
S12320600E942C1A8091C00085FFFCCF8AE08093C600FE018491E7EEFAE0882349F0909149
S1232080C00095FFFCCF8093C60031968491F5CFEDE3F3E08491882341F09091C00095FF9B
S12320A0FCCF8093C6003196F5CF8091C00085FFFCCF8AE08093C600FE018491E7EEFAE0C7
S12320C0882349F09091C00095FFFCCF8093C60031968491F5CF40919E1150919F1160915D
S12320E0A0117091A11184E393E00E942C1A4091A2115091A3116091A4117091A51181E3DC
S123210093E00E942C1A4091A6115091A7116091A8117091A9118EE293E00E942C1A40913E
S1232120AA115091AB116091AC117091AD118BE293E00E942C1A8091C00085FFFCCF8AE084
S12321408093C600FE018491E7EEFAE0882349F09091C00095FFFCCF8093C6003196849106
S1232160F5CFEDE0F3E08491882341F09091C00095FFFCCF8093C6003196F5CF8091C00091
S123218085FFFCCF8AE08093C600FE018491E7EEFAE0882349F09091C00095FFFCCF8093AF
S12321A0C60031968491F5CF40917E1150917F11609180117091811184E093E00E944E1AEE
S12321C04091821150918311609184117091851181E093E00E944E1A409186115091871146
S12321E060918811709189118EEF92E00E944E1A40918A1150918B1160918C1170918D11A7
S12322008BEF92E00E944E1A8091C00085FFFCCF8AE08093C600FE018491E7EEFAE08823F3
S123222049F09091C00095FFFCCF8093C60031968491F5CFE6ECF2E08491882341F09091F2
S1232240C00095FFFCCF8093C6003196F5CF8091C00085FFFCCF8AE08093C600FE01849180
S1232260E7EEFAE0882349F09091C00095FFFCCF8093C60031968491F5CF409176115091D5
S1232280771160917811709179118DEB92E00E942C1A4091721150917311609174117091AB
S12322A075118AEB92E00E942C1A8091C00085FFFCCF8AE08093C600FE018491E7EEFAE09F
S12322C0882349F09091C00095FFFCCF8093C60031968491F5CFE7E0F2E08491882341F0D3
S12322E09091C00095FFFCCF8093C6003196F5CF8091C00085FFFCCF8AE08093C600FE01D4
S12323008491E7EEFAE0882349F09091C00095FFFCCF8093C60031968491F5CF40917A11FC
S123232050917B1160917C1170917D118EEF91E00E942C1A4091621150916311609164114A
S1232340709165118BEF91E00E942C1A4091AE115091AF116091B0117091B11188EF91E0A1
S12323600E944E1A40916E1150916F11609170117091711185EF91E00E942C1A40916A1190
S123238050916B1160916C1170916D1182EF91E00E942C1A4091661150916711609168111A
S12323A0709169118FEE91E00E942C1A8091C00085FFFCCF8AE08093C600FE018491E7EE7C
S12323C0FAE0882349F09091C00095FFFCCF8093C60031968491F5CFEDEDF1E08491882317
S12323E041F09091C00095FFFCCF8093C6003196F5CF8091C00085FFFCCF8AE08093C600A1
S1232400FE018491E7EEFAE0882349F09091C00095FFFCCF8093C60031968491F5CF409187
S12324209707509198076091990770919A0784ED91E00E942C1A40919B0750919C07609195
S12324409D0770919E0781ED91E00E942C1A40919F075091A0076091A1077091A2078EECAB
S123246091E0FAD78091C00085FFFCCF8AE08093C600FE018491E7EEFAE0882349F09091EB
S1232480C00095FFFCCF8093C60031968491F5CFE0ECF1E08491882341F09091C00095FF9D
S12324A0FCCF8093C6003196F5CF8091C00085FFFCCF8AE08093C600FE01C491E7EEFAE083
S12324C0CC2349F08091C00085FFFCCFC093C6003196C491F5CF409182025091830260910B
S12324E084027091850286EB91E0B6D760917E0270917F0280918002909181020E9437A1B7
S1232500AB01BC0183EB91E0A7D760917A0270917B0280917C0290917D020E9443A1AB01A5
S1232520BC0180EB91E098D78091C00085FFFCCF8AE08093C600DF91CF910895AF92BF922D
S1232540CF92DF92EF92FF920F931F93CF93DF93CDB7DEB7E0970FB6F894DEBF0FBECDBF94
S123256080E1EFE9F2E0DE01919601900D928A95E1F780E1EFEAF2E0DE01519601900D921D
S12325808A95E1F780E1EFEBF2E0DE01119601900D928A95E1F76E0181E2C80ED11C8EE87B
S12325A0E82E81E1F82E8E010F5E1F4F6EE971E1AE014F5F5F4F9EE7A92E91E1B92E20E0A6
S12325C030E0F60181919191A191B1916F01F70181939193A193B1937F01F8018191919183
S12325E0A191B1918F01FB0181939193A193B193BF01FA0181919191A191B191AF01F5011E
S123260081939193A193B1935F012F5F3F4F24303105B9F60E94177980E090EAA5E2B5E425
S12326208093761190937711A0937811B093791180E090E8ABE3B5E480937211909373118C
S1232640A0937411B093751110927A1110927B1110927C1110927D1180E29EE4A0E0B0E047
S12326608093AE119093AF11A093B011B093B111109262111092631110926411109265114E
S123268080E090E0A0E7B1E480936E1190936F11A0937011B09371118DEC9CECACECBEE362
S12326A080936A1190936B11A0936C11B0936D1180E090E0A0EAB0E4809366119093671165
S12326C0A0936811B093691110929F071092A0071092A1071092A20710929B0710929C07DE
S12326E010929D0710929E0710929707109298071092990710929A0784EB90E09093D4125B
S12327008093D3128CE390E09093D2128093D1121092D0121092CF1280EF90E09093CE12F8
S12327208093CD1286E490E09093CC128093CB121092CA121092C9128DEC9CECACE4BFE3AA
S12327408093840790938507A0938607B09387078AE999E9A1EBB1E4809382029093830242
S1232760A0938402B093850261E77DE38AE89FE30E9431A160937E0270937F028093800236
S12327809093810260E070E084EE92E40E943DA160937A0270937B0280937C0290937D0275
S12327A00E94F19580E090E0A0E8BFE38093760290937702A0937802B0937902E7EEFAE0B2
S12327C08491882341F09091C00095FFFCCF8093C6003196F5CFEEE8F1E08491882341F0C8
S12327E09091C00095FFFCCF8093C6003196F5CF8091C00085FFFCCF8AE08093C600E09658
S12328000FB6F894DEBF0FBECDBFDF91CF911F910F91FF90EF90DF90CF90BF90AF90089546
S12328201F920F920FB60F9211240BB60F922F933F934F935F936F938F939F93EF93FF9373
S12328406091C6002091A5053091A605C90101968F7799274091A7055091A805841795078D
S123286041F0F901EB5DFA4F60839093A6058093A505FF91EF919F918F916F915F914F91FA
S12328803F912F910F900BBE0F900FBE0F901F9018959A01AB01211581EE3807410551050E
S12328A049F182E08093C00060E079E08DE390E00E94B3E22150310941095109CA01B90121
S12328C022E030E040E050E00E94B3E23093C5002093C4008091C10080618093C1008091C4
S12328E0C10088608093C1008091C10080688093C10008951092C00020E130E0E7CF209152
S1232900A7053091A8058091A5059091A6058217930771F0F901EB5DFA4F80812F5F3F4FD6
S12329202F7733273093A8052093A70590E008958FEF9FEF08958091A7059091A805909360
S1232940A6058093A50508954F925F926F927F928F929F92AF92BF92CF92DF92EF92FF92C2
S12329600F931F93CF93DF93CDB7DEB7A0970FB6F894DEBF0FBECDBF5C0141155105610525
S12329807105E9F420E030E040E350E060E070E0A0960FB6F894DEBF0FBECDBFDF91CF91A0
S12329A01F910F91FF90EF90DF90CF90BF90AF909F908F907F906F905F904F905BC08E0185
S12329C00F5F1F4FC12CD12C76014801422E512C612C712C8FEFC81AD80AE80AF80ACB0154
S12329E0BA01A30192010E9491E2CA01F80161938F01A901BC01411551056105710551F74D
S1232A00F1E0CF1AD108E108F108F401EC0DFD1D80818A3010F440E301C047E3480F552795
S1232A2047FD5095652F752F20E030E0C50122D081E0C81AD108E108F108EFEFCE16DE06C5
S1232A40EE06FE0611F7A0960FB6F894DEBF0FBECDBFDF91CF911F910F91FF90EF90DF9058
S1232A60CF90BF90AF909F908F907F906F905F904F9008952115310539F48091C00085FFB0
S1232A80FCCF4093C60008952A30310509F41CC05BCFCF93DF93EC0120E030E04DE050E070
S1232AA060E070E0E7DF20E030E04AE050E060E070E0CE01DF91CF91DDCF9A01AB016627A3
S1232AC057FD6095762FD6CFCF92DF92EF92FF92CF93DF93EC016A017B0177FF0FC020E08E
S1232AE030E04DE250E060E070E0C4DFF094E094D094C094C11CD11CE11CF11C2AE0B701EA
S1232B00A601CE01DF91CF91FF90EF90DF90CF901BCF2115310539F48091C00085FFFCCFEC
S1232B204093C600089510CF9A01462F50E060E070E0EFCFCF93DF93EC019A01AB0160E0A6
S1232B4070E0E7DFCE01DF91CF91A3CF8F929F92AF92BF92CF92DF92EF92FF921F93CF936E
S1232B60DF93EC016A017B01122F20E030E0A901C701B6010E94C0DE87FF0CC020E030E0EF
S1232B804DE250E060E070E0CE0174DFF7FAF094F7F8F094B12C60E070E080E09FE3B11622
S1232BA041F020E030E040E251E40E94C7DEB394F6CF9B01AC01C701B6010E94E7DD6B018C
S1232BC07C010E9434DF4B015C010E9460DF9B01AC01C701B6010E94E6DD6B017C012AE015
S1232BE0B501A401CE01B0DE112361F0EDEEF4E08191882339F09091C00095FFFCCF8093AC
S1232C00C600F6CF112319F120E030E040E251E4C701B6010E9495E16B017C010E942FDF50
S1232C204B01AA2497FCA094BA2CB501A401CE014BDFC501B4010E9462DF9B01AC01C70106
S1232C40B6010E94E6DD6B017C011150DBCFDF91CF911F91FF90EF90DF90CF90BF90AF9076
S1232C609F908F90089572CFFC016591759185919491089580910B0290910C02A0910D02C6
S1232C80B0910E0280935C0790935D07A0935E07B0935F0780912502909126029093B40742
S1232CA08093B30784E690E090932602809325020E947DD76093BB057093BC058093BD05A2
S1232CC09093BE0581E00C94838B80E00E94838B80915C0790915D07A0915E07B0915F07B5
S1232CE080930B0290930C02A0930D02B0930E028091B3079091B4079093260280932502BE
S1232D000E947DD76093BB057093BC058093BD059093BE0508952F923F924F925F926F9285
S1232D207F928F929F92AF92BF92CF92DF92EF92FF920F931F93CF93DF93CDB7DEB72C97B2
S1232D400FB6F894DEBF0FBECDBF69837A838B839C8329013A01ED82FE820F8318872091DC
S1232D600B0230910C0240910D0250910E0229873A874B875C8760912F0270913002809116
S1232D8031029091320260930B0270930C0280930D0290930E02ABEAB7E0ED92FD920D9367
S1232DA01C93139720E030E040E752E40E94C7DE4B015C01E7EAF7E02081318142815381C7
S1232DC083EA282E87E0382ED1016D917D918D919C91A3E8B7E0BF93AF93EFEACE2EE7E0E4
S1232DE0DE2EED80FE800F8118850E945A6D0E944F9380E090E0AAEFB5E480930B02909379
S1232E000C02A0930D02B0930E0229813A814B815C81D1012D933D934D935C931397E7EA51
S1232E20F7E04082518262827382ABEAB7E0ED90FD900D911C91A3E8B7E0BF93AF93F5E538
S1232E408F2E982CF5E0AF2EF3E4BF2EA301920169817A818B819C810E945A6D0E944F9345
S1232E6029853A854B855C8520930B0230930C0240930D0250930E020F900F900F900F904E
S1232E802C960FB6F894DEBF0FBECDBFDF91CF911F910F91FF90EF90DF90CF90BF90AF909B
S1232EA09F908F907F906F905F904F903F902F9008952F923F924F925F926F927F928F9222
S1232EC09F92AF92BF92CF92DF92EF92FF920F931F93CF93DF9387E492E00E94C1D3EFE23B
S1232EE0F2E0608171818281938160930B0270930C0280930D0290930E0220E030E040E775
S1232F0052E40E94C7DE4B015C01C7EAD7E0288139814A815B81E3EAF7E06081718182819B
S1232F209381A3E82A2EA7E03A2E3F922F92BFEACB2EB7E0DB2EE12CF12C00E211EC0E9428
S1232F405A6D0E944F9382E00E94B9934B015C01288139814A815B81E3EAF7E060817181A8
S1232F6082819381850174010E94097883EB9AE07BDE9B01AC01C501B4010E94E7DD2B0181
S1232F803C0120E030E040E752E460910B0270910C0280910D0290910E020E94C7DE4B0192
S1232FA05C01288139814A815B81E3EAF7E060817181828193813F922F92830172010E94ED
S1232FC05A6D0E944F9320E030E040E85EE3EFE2F2E060817181828193810E9495E14B0138
S1232FE05C0160930B0270930C0280930D0290930E0283EB9AE038DE6B017C0120E030E013
S123300040E752E4C501B4010E94C7DE4B015C01A7019601C701B6010E94E7DD9B01AC0177
S1233020C301B2010E94E6DD7B018C01288139814A815B81E3EAF7E060817181828193810F
S12330403F922F92FFEACF2EF7E0DF2E0E945A6D0E944F9382E00E94B9937B018C016093D7
S1233060AB077093AC078093AD079093AE07288139814A815B81E3EAF7E0608171818281C1
S123308093810E9409780F900F900F900F900F900F90DF91CF911F910F91FF90EF90DF909E
S12330A0CF90BF90AF909F908F907F906F905F904F903F902F9008952F923F924F925F9266
S12330C06F927F928F929F92AF92BF92CF92DF92EF92FF920F931F93CF93DF93CDB7DEB7D1
S12330E02A970FB6F894DEBF0FBECDBF9E838D83FC01E855F54FB490880F991F880F991F33
S12331009A8789878D55984F9A838983DC011D921D921D921C921397BBEA2B2EB7E03B2E48
S1233120F101E080F18002811381A7EAB7E02D913D914D915C91E3EAF7E0608171818281B8
S12331409381EFEACE2EE7E0DE2E0E94097889859A858954954F88DD6B017C016B2D77271A
S123316067FD7095872F972F0E9462DF2B013C0129853A852059384F3C832B8320E030E030
S123318040EC5FE3C701B6010E9495E1A30192010E9495E1AB81BC816D937D938D939C930F
S12331A01397E985FA85E95DFD4FF887EF83608171818281938160930B0270930C028093E3
S12331C00D0290930E0220E030E040E752E40E94C7DE4B015C01A8E7B7E0ED90FD900D917E
S12331E01C91E4E7F7E02081318142815381A0E7B7E06D917D918D919C91A3E8B7E0BF93A9
S1233200AF93FCE7CF2EF7E0DF2E0E945A6D0E944F93A981BA811D921D921D921C921397ED
S1233220F101E080F18002811381A7EAB7E02D913D914D915C91E3EAF7E0608171818281B7
S12332409381AFEACA2EA7E0DA2E0E94097829853A852555354F1901C90106DD9058A30155
S123326092010E9495E1AB81BC816D937D938D939C93139720E030E040E752E460910B02C2
S123328070910C0280910D0290910E020E94C7DE4B015C01E8E7F7E0E080F180028113814C
S12332A0A4E7B7E02D913D914D915C91E0E7F7E06081718182819381A3E8B7E0BF93AF9353
S12332C0BCE7CB2EB7E0DB2E0E945A6D0E944F93C101CADC9B01AC010E94E7DDA301920173
S12332E00E9495E1AB81BC816D937D938D939C93139720E030E040E05FE3EF81F885608100
S12333007181828193810E9495E160930B0270930C0280930D0290930E0220E030E040E7EB
S123332052E40E94C7DE4B015C01A8E7B7E0ED90FD900D911C91E4E7F7E020813181428130
S12333405381A0E7B7E06D917D918D919C91A3E8B7E0BF93AF930E945A6D0E944F9389856F
S12333609A858D53954F80DC09851A850956184FD8012D913D914D915C910E94E7DDE98117
S1233380FA81608371838283938389859A858552954F6ADC29853A852557384F7901D801CB
S12333A02D913D914D915C910E94E7DDF701608371838283938389859A858153954F54DC4D
S12333C029853A852F5E3D4F7901D8012D913D914D915C910E94E7DDF7016083718382837F
S12333E09383E981FA8180819181A281B381EB81FC8180839183A283B38310920B021092B8
S12334000C0210920D0210920E020E947C8BED81FE81E857F84F81E080830F900F900F90DA
S12334200F900F900F902A960FB6F894DEBF0FBECDBFDF91CF911F910F91FF90EF90DF9007
S1233440CF90BF90AF909F908F907F906F905F904F903F902F900895FC012491222341F0FE
S12334603091C00035FFFCCF2093C6000196F4CF22E030E084E295E0F6CBFC012491222350
S123348041F03091C00035FFFCCF2093C6000196F4CF22E030E084E295E0E5CBFC01249155
S12334A0222341F03091C00035FFFCCF2093C6000196F4CF2AE030E084E295E02ACB2091A4
S12334C0C5053091C605243031050CF06AC04091C7055091C80560E6649F9001659F300D7C
S12334E01124BC01C90181539A4F0E9461E7E7EEFAE08491882341F09091C00095FFFCCF85
S12335008093C6003196F5CFEDE9FAE08491882341F09091C00095FFFCCF8093C6003196C2
S1233520F5CF8091C7059091C80520E6289FF001299FF00D1124E153FA4F8191882339F0DD
S12335409091C00095FFFCCF8093C600F6CFEBE9FAE08491882341F09091C00095FFFCCFAA
S12335608093C6003196F5CF8091C00085FFFCCF8AE08093C6008091C7059091C80501961E
S123358064E070E00E947EE29093C8058093C7058091C5059091C60501969093C605809363
S12335A0C50508952091C5053091C605243031050CF06AC04091C7055091C80560E6649F55
S12335C09001659F300D1124BC01C90181539A4F0E94C8E6E7EEFAE08491882341F090918B
S12335E0C00095FFFCCF8093C6003196F5CFE0E9FAE08491882341F09091C00095FFFCCF70
S12336008093C6003196F5CF8091C7059091C80520E6289FF001299FF00D1124E153FA4F42
S12336208191882339F09091C00095FFFCCF8093C600F6CFEEE8FAE08491882341F0909100
S1233640C00095FFFCCF8093C6003196F5CF8091C00085FFFCCF8AE08093C6008091C705A3
S12336609091C805019664E070E00E947EE29093C8058093C7058091C5059091C6050196FE
S12336809093C6058093C50508959898A09A0895269A2E980895F9DFFBDF40E052EC61E043
S12336A070E084E295E0F5D8E8E8FAE08491882341F09091C00095FFFCCF8093C600319693
S12336C0F5CF8091C00085FFFCCF8AE08093C60087EE9AE0FC012491222341F03091C00027
S12336E035FFFCCF2093C6003196F5CF24B720FF14C0E0E8FAE03491332341F04091C00076
S123370045FFFCCF3093C6003196F5CF3091C00035FFFCCF3AE03093C60021FF14C0E0E7A4
S1233720FAE03491332341F04091C00045FFFCCF3093C6003196F5CF3091C00035FFFCCF2B
S12337403AE03093C60022FF14C0EFE5FAE03491332341F04091C00045FFFCCF3093C600AA
S12337603196F5CF3091C00035FFFCCF3AE03093C60023FF14C0EFE4FAE03491332341F0A8
S12337804091C00045FFFCCF3093C6003196F5CF3091C00035FFFCCF3AE03093C60025FF2A
S12337A014C0EFE3FAE02491222341F03091C00035FFFCCF2093C6003196F5CF2091C00065
S12337C025FFFCCF2AE02093C60014BEE8E3FAE02491222341F03091C00035FFFCCF20939E
S12337E0C6003196F5CFE2E3FAE02491222341F03091C00035FFFCCF2093C6003196F5CF26
S12338002091C00025FFFCCF2AE02093C600FC012491E7EEFAE0222349F03091C00035FF2D
S1233820FCCF2093C60031962491F5CFE2E2FAE02491222341F03091C00035FFFCCF209304
S1233840C6003196F5CFEDE0FAE02491222341F03091C00035FFFCCF2093C6003196F5CFBD
S1233860E1E0FAE02491222341F03091C00035FFFCCF2093C6003196F5CFE1EEF9E024919D
S1233880222341F03091C00035FFFCCF2093C6003196F5CF2091C00025FFFCCF2AE020930D
S12338A0C600E6EDF9E02491222341F03091C00035FFFCCF2093C6003196F5CFEAECF9E034
S12338C02491222341F03091C00035FFFCCF2093C6003196F5CF2091C00025FFFCCF2AE0CB
S12338E02093C600FC018491E7EEFAE0882349F09091C00095FFFCCF8093C60031968491B1
S1233900F5CFEBEBF9E08491882341F09091C00095FFFCCF8093C6003196F5CF0E940254A3
S12339204AE050E0BC0184E295E0C7D8E4EAF9E08491882341F09091C00095FFFCCF809307
S1233940C6003196F5CF4AE050E060ED74E084E295E0B3D88091C00085FFFCCF8AE0809314
S1233960C6001092CB051092CC051092CD051092CE050E949E120E94CF0F0E9413960E94F0
S1233980F46B0E94BC920E9432B3FFEF23ED80E3F15020408040E1F700C000000895809145
S12339A0BF059091C00560E070E001960C941FE48091BF059091C0054AE050E060E070E0EA
S12339C001960C9487E5682F772767FD70952091C9053091CA0540E6429FC001439F900D4C
S12339E0112481539A4F0E944DE79093C0058093BF0521E0892B09F420E0822F08950E949A
S1233A007DD76093BB057093BC058093BD059093BE0508950E947DD76093BB057093BC0512
S1233A208093BD059093BE05E091C905F091CA05E553FA4F8081811114C0E0E2F4E08491A5
S1233A40882341F09091C00095FFFCCF8093C6003196F5CF8091C00085FFFCCF8AE0809345
S1233A60C600089584E295E00E949B14E3E2F4E08491882341F09091C00095FFFCCF8093D6
S1233A80C6003196F5CF409154075091550760915607709157074F5F5F4F6F4F7F4F2AE0C9
S1233AA030E084E295E00E943A158091C00085FFFCCF8AE08093C600ADCF8F929F92AF92B4
S1233AC0BF92CF92DF92EF92FF920F931F93CF93DF93CDE7EC2EC4E0FC2E03EA17E0C0E75E
S1233AE0D7E085EBC82E87E0D82EF70181917F016ADF882311F153DF4B015C01F6018081E5
S1233B00811103C060914F0701C061E070E080E090E00E9462DFF80120813181428153811D
S1233B200E9495E19B01AC01C501B4010E94E7DD688379838A839B8309C0F8018081918158
S1233B40A281B38188839983AA83BB830C5F1F4F2496FFEFCF1ADF0A81E8E81684E0F8065C
S1233B6021F686E430DF8823D1F019DF6B017C016093600770936107809362079093630796
S1233B8020E030E0A9010E94C3E0181644F4C0920B02D0920C02E0920D02F0920E02DF916A
S1233BA0CF911F910F91FF90EF90DF90CF90BF90AF909F908F90089580DF89E404DF8823A2
S1233BC051F0EDDE6093640770936507809366079093670708C01092640710926507109272
S1233BE06607109267078AE4EEDE882351F0D7DE609368077093690780936A0790936B077B
S1233C000895109268071092690710926A0710926B070895CF92DF92EF92FF92CF93DF9364
S1233C20EC01C0908B07D0908C07E0908D07F0908E07A7019601688179818A819B810E94BA
S1233C40C0DE87FF04C0C882D982EA82FB82C0908F07D0909007E0909107F0909207A70144
S1233C6096016C817D818E819F810E94C0DE87FF04C0CC82DD82EE82FF82C0909F07D09011
S1233C80A007E090A107F090A20720E030E0A901C701B6010E94C0DE87FF09C02DEC3CEC2F
S1233CA04CE45FE3C701B6010E94E6DD04C06DEC7CEC8CE49FEB20919307309194074091B3
S1233CC09507509196070E94E7DD6B017C019B01AC01688579858A859B850E94C0DE87FF4E
S1233CE004C0C886D986EA86FB86C0901102D0901202E0901302F0901402A7019601688144
S1233D0079818A819B810E94C3E0181624F4C882D982EA82FB82C0901502D0901602E09016
S1233D201702F0901802A70196016C817D818E819F810E94C3E0181624F4CC82DD82EE82CB
S1233D40FF82C0901902D0901A02E0901B02F0901C02A7019601688579858A859B850E94D1
S1233D60C3E0181624F4C886D986EA86FB86DF91CF91FF90EF90DF90CF9008954F925F929D
S1233D806F927F928F929F92AF92BF92CF92DF92EF92FF920F931F93CF93DF93CDB7DEB704
S1233DA028970FB6F894DEBF0FBECDBF80E797E031DF0E947DD76093BB057093BC0580938B
S1233DC0BD059093BE052091700730917107409172075091730729833A834B835C8360912A
S1233DE0A3077091A4078091A5079091A6070E94C0DE40907407509075076090760770908A
S1233E007707209178073091790740917A0750917B072D833E834F83588781118BC0A30157
S1233E2092016091A7077091A8078091A9079091AA070E94C0DE81117DC020E030E040E7C3
S1233E4052E460910B0270910C0280910D0290910E020E94C7DE4B015C0183E897E09F93C6
S1233E608F939CE7C92E97E0D92EED80FE800F811885A301920169817A818B819C810E9425
S1233E805A6D0F900F908091700790917107A0917207B09173078093A3079093A407A093D5
S1233EA0A507B093A6078091740790917507A0917607B09177078093A7079093A807A09306
S1233EC0A907B093AA078091780790917907A0917A07B0917B078093AB079093AC07A093C6
S1233EE0AD07B093AE0780917C0790917D07A0917E07B0917F078093AF079093B007A09386
S1233F00B107B093B20728960FB6F894DEBF0FBECDBFDF91CF911F910F91FF90EF90DF9047
S1233F20CF90BF90AF909F908F907F906F905F904F9008956091250270912602882777FD65
S1233F408095982F0E9462DF20910B0230910C0240910D0250910E020E9495E120E030E018
S1233F6040E752E40E94C7DE20E030E048EC52E470CFAF92BF92CF92DF92EF92FF920F93C8
S1233F801F93CF93DF93D82F209168073091690740916A0750916B076091640770916507E1
S1233FA080916607909167070E94D0E0C62F172F082FF92E6091250270912602882777FDA1
S1233FC08095982F0E9462DF20910B0230910C0240910D0250910E020E9495E120E030E098
S1233FE040E752E40E94C7DE20E030E048EC52E40E94C7DE209183072F93DF93FF920F93B6
S12340001F93CF935B016C0122E0E22E01E020E044E657E060E777E083EA97E00E94BB6428
S12340208091700790917107A0917207B09173078093A3079093A407A093A507B093A6079C
S12340408091740790917507A0917607B09177078093A7079093A807A093A907B093AA075C
S12340608091780790917907A0917A07B0917B078093AB079093AC07A093AD07B093AE071C
S123408080917C0790917D07A0917E07B0917F078093AF079093B007A093B107B093B207DC
S12340A00E947DD76093BB057093BC058093BD059093BE050F900F900F900F900F900F901A
S12340C0DF91CF911F910F91FF90EF90DF90CF90BF90AF900895F8940E94EF965F9A109267
S12340E088078A9A109289079FB7F894809108018160809308019FBF10928A07129A60E061
S12341008CE00E9468D9EDEEFAE08491882341F09091C00095FFFCCF8093C6003196F5CF02
S1234120E1E0F4E08491882341F09091C00095FFFCCF8093C6003196F5CF8091C00085FFFC
S1234140FCCF8AE08093C60088EF93E00E94D0B27894C6E0D0E0219749F068EC70E080E0E8
S123416090E00E94ACD70E9450B3F5CFF894FFCF2F923F924F925F926F927F928F929F921B
S1234180AF92BF92CF92DF92EF92FF920F931F93CF93DF93CDB7DEB76E970FB6F894DEBF71
S12341A00FBECDBF60E6B62E74E0E72EF12CEAE6CE2EE8E0DE2EFAE0AF2E992493948091A6
S12341C0A5059091A6052091A7053091A805821B930B8F779927892B09F418C28091C50533
S12341E09091C60504970CF011C284E295E00E947F148093C4052091C2053091C3058A30BE
S123420061F08D3051F08A3321F49091C105992321F02F3531050CF41BC12115310509F4E6
S123422035C18091C7059091C805B89E3001B99E700C1124F301E20FF31FE153FA4F108224
S12342402091C1052111FFC0FC01E553FA4F1082830101531A4F6EE470E0C8010E944DE760
S12342600097F1F19093C0058093BF05801B910B860D971D4AE050E060E070E080539A4FDE
S12342800E9487E5609358077093590780935A0790935B07409054075090550760905607AA
S12342A0709057072FEF421A520A620A720A0091C7051091C805641575058605970509F4FC
S12342C0E8C0B09EC001B19E900D112466E879E081539A4F0E94FFE6892B09F0DAC069C1A6
S12342E06AE270E0C8010E944DE7892B09F444C0EDEEFAE08491882341F09091C00095FFAF
S1234300FCCF8093C6003196F5CFE0EEF8E08491882341F09091C00095FFFCCF8093C600BA
S12343203196F5CF409154075091550760915607709157072AE030E084E295E00E943A15F2
S12343408091C00085FFFCCF8AE08093C6001092C3051092C205C0C28091580790915907B0
S1234360A0915A07B0915B078093540790935507A0935607B09357078091C7059091C8051B
S1234380B89E8001B99E100D1124C80181539A4F3C0167E470E00E944DE7009781F1909339
S12343A0C0058093BF0586199709800F911F60E070E080539A4F0E941FE40E942FDF6430AA
S12343C07105E8F48091AD058823C9F0F6018491EAE6F8E0882349F09091C00095FFFCCF88
S12343E08093C60031968491F5CF8091C00085FFFCCFA092C60080E698E00E94C3B20091A2
S1234400C7051091C805B09EC001B19E900D11246FE073E081539A4F0E9458E7892B09F43D
S12344205ADEC8010196B7010E947EE29093C8058093C7058091C5059091C60501969093D6
S1234440C6058093C5051092C3051092C205B7CE8B3311F49092C1059091C1059111AFCEA7
S12344604091C7055091C805B9016F5F7F4F7093C3056093C205B49EF001B59EF00D11244A
S1234480E20FF31FE153FA4F808399CE1092C10523C2B09E3001B19E700C1124C3018153CA
S12344A09A4F1C016AE270E00E944DE7009789F5EDEEFAE08491882341F09091C00095FF50
S12344C0FCCF8093C6003196F5CFEAE0F9E08491882341F09091C00095FFFCCF8093C600FC
S12344E03196F5CF409154075091550760915607709157072AE030E084E295E00E943A1531
S12345008091C00085FFFCCF8AE08093C600AADA1ECF20E010E0F301E20FF11DE153FA4F63
S123452030813A3219F02F5F1327F5CF9093C0058093BF0582199309860D971D60E070E0F8
S123454080539A4F0E941FE40E942FDF212F30E02617370709F400CFEDEEFAE0849188232A
S123456041F09091C00095FFFCCF8093C6003196F5CFE4E3F9E08491882341F09091C000F0
S123458095FFFCCF8093C6003196F5CF409154075091550760915607709157072AE030E024
S12345A084E295E00E943A158091C00085FFFCCFABCFEDEEFAE08491882341F09091C0000A
S12345C095FFFCCF8093C6003196F5CFE3E5F9E08491882341F09091C00095FFFCCF80932F
S12345E0C6003196F5CF409154075091550760915607709157072AE030E084E295E00E94B9
S12346003A158091C00085FFFCCF7ECF8091BB07882309F461C18091C2059091C305892BC8
S123462009F05AC18091C5059091C605892B11F41092AB0548EE242E43E0342E412C512C99
S12346405CE3C52ED12CE12CF12C8E010F5F1F4F30E6632E7724739440913C0A50913D0A0A
S123466060913E0A70913F0A8091340A9091350AA091360AB091370A481759076A077B075F
S123468008F02AC18091C5059091C60504970CF023C18091AB0581111FC180918F099091F4
S12346A09009A0919109B091920980933C0A90933D0AA0933E0AB0933F0A87E899E00E9462
S12346C0D44D482F8093C4058A30B9F04D30A9F0433229F42091C105211103C00EC04A33A0
S12346E0C9F32091C2053091C3052F3531052CF48F3FFFEF9F0709F0D1C040913C0A50915B
S12347003D0A60913E0A70913F0A8091340A9091350AA091360AB091370A481759076A07F9
S12347207B0708F481C0EDE4F8E08491882341F09091C00095FFFCCF8093C6003196F5CF78
S12347408091C00085FFFCCFFAE0F093C6000E947DD76093AF057093B0058093B1059093D1
S1234760B2058090B3059090B405A090B505B090B605681979098A099B09A20191010E94E7
S123478091E249015A01CA01B901A70196010E9491E2CA01B901A70196010E9491E27F9339
S12347A06F93C501B40120E13EE040E050E00E9491E23F932F93A9E3B8E0BF93AF931F93F6
S12347C00F930E9485E7E7EEFAE084910FB6F894DEBF0FBECDBF882349F09091C00095FFC1
S12347E0FCCF8093C60031968491F5CFF8018191882339F09091C00095FFFCCF8093C60079
S1234800F6CF8091C00085FFFCCF3AE03093C600C8010E9470B089EB97E00E943F6461E010
S123482089EB97E00E94775E8091C405833211F47092AB052091C2053091C305211531055F
S123484009F424CE8091C7059091C805689EF001699EF00D1124E20FF31FE153FA4F108258
S1234860FC01E553FA4F70822091C5053091C6052F5F3F4F3093C6052093C505019664E0BB
S123488070E00E947EE29093C8058093C7051092C1051092C3051092C205DECE4B3311F489
S12348A07092C1054091C1054111D2CE4091C7055091C805B9016F5F7F4F7093C305609344
S12348C0C205649EF001659EF00D1124E20FF31FE153FA4F8083C0CE6E960FB6F894DEBFE2
S12348E00FBECDBFDF91CF911F910F91FF90EF90DF90CF90BF90AF909F908F907F906F9075
S12349005F904F903F902F900895CF92DF92EF92FF920F931F93CF93C82F8091C50590910D
S1234920C60503970CF424DC0E947DD70091B7051091B8052091B9053091BA05C090BB056E
S1234940D090BC05E090BD05F090BE056C197D098E099F09061717072807390728F4012B81
S1234960022B032B09F0B7DB40910702509108026091090270910A02452B462B472B19F122
S12349800E947DD70091BB051091BC052091BD053091BE05601B710B820B930B00910702B7
S12349A0109108022091090230910A02061717072807390740F49091590C8091580C98133B
S12349C002C0CC2309F18091A9059091AA05909902C0019604C0181619062CF4019790932B
S12349E0AA058093A9058091A9059091AA05803197420CF0B8CFCF911F910F91FF90EF90E9
S1234A00DF90CF900C943D6D5F9A109288078A9A109289079FB7F89480910801816080930A
S1234A2008019FBF10928A07129ACDCF0E94EF968091AD05811138C081E08093AD058091E5
S1234A40540790915507A0915607B09157078093500790935107A0935207B0935307EDEE64
S1234A60FAE08491882341F09091C00095FFFCCF8093C6003196F5CFE2E8F3E08491882366
S1234A8041F09091C00095FFFCCF8093C6003196F5CF8091C00085FFFCCF8AE08093C600DA
S1234AA088E793E00C94C3B208958091AD050895CF93DF93EC01809183078093AE0584E573
S1234AC00E94E31C811102C080E075C00E94CF1C0E9434DF6093AE056623B1F3E7EEFAE084
S1234AE08491882341F09091C00095FFFCCF8093C6003196F5CFCD36D105B9F054F4C83655
S1234B00D105B1F0C936D10509F045C0E9E5F3E021C0CA3DD10531F0CD3DD105E1F5E4E14C
S1234B20F3E036C0EBE2F3E029C0E2E4F3E01CC0E0E7F3E08191882371F19091C00095FF7C
S1234B40FCCF8093C600F6CF9091C00095FFFCCF8093C60081918111F7CF1DC09091C000A7
S1234B6095FFFCCF8093C60081918111F7CF13C09091C00095FFFCCF8093C60081918111FF
S1234B80F7CF09C09091C00095FFFCCF8093C60081918111F7CF40E050E06091AE0584E2A5
S1234BA095E00E9494158091C00085FFFCCF8AE08093C60081E0DF91CF9108952F923F926E
S1234BC04F925F926F927F928F929F92AF92BF92CF92DF92EF92FF920F931F93CF93DF93FD
S1234BE0CDB7DEB7CB55D1400FB6F894DEBF0FBECDBF87E40E94E31C882309F4CFC60E9435
S1234C00CF1C0E942FDF6C31710509F4ADC09CF46230710509F44AC024F477FF3DC00C94AE
S1234C20B8456330710509F44CC06430710509F453C00C94B8456A35710509F444C614F585
S1234C406D31710509F4E8C16E31710511F00C94B8450E944F930E943A1680912F0290910A
S1234C603002A0913102B091320280930B0290930C02A0930D02B0930E020E945917E8EE57
S1234C80F7E0BCC56B35710509F421C66C35710509F422C60C94B8458091AD0581110C9430
S1234CA0B8450E945D1D6AD80C94B8458091AD0581110C94B8450E94DC1D81E05AD90C9437
S1234CC0B8458091AD0581110C94B8450E94DC1D80E04FD90C94B84580E398E00E94C3B22F
S1234CE080E50E94E31C882339F00E94CF1C0E9434DF4B015C0103C0812C912C540183E501
S1234D000E94E31C882361F00E94CF1C20E030E04AE754E40E9495E10E9434DF4B015C0176
S1234D200E944F930E947DD76B017C01C80CD91CEA1CFB1C0E947DD76093BB057093BC05B9
S1234D408093BD059093BE050E947DD76C157D058E059F0510F00C94B8450E94269C80E003
S1234D60D4DD0E9450B3F0CF87E492E00E94C1D380910B0290910C02A0910D02B0910E0229
S1234D8080935C0790935D07A0935E07B0935F0780912502909126029093B4078093B307A5
S1234DA084E690E090932602809325020E947DD76093BB057093BC058093BD059093BE0568
S1234DC081E00E94838B8091A3079091A407A091A507B091A6078093700790937107A09314
S1234DE07207B09373078091A7079091A807A091A907B091AA078093740790937507A093B7
S1234E007607B09377078091AB079091AC07A091AD07B091AE078093780790937907A09376
S1234E207A07B0937B078091AF079091B007A091B107B091B20780937C0790937D07A09336
S1234E407E07B0937F0710920B0210920C0210920D0210920E0288E50E94E31C882311F084
S1234E6090E00AC089E50E94E31C8111F9CF8AE50E94E31C91E0982790930F0291110C94D5
S1234E80BB4588E50E94E31C81110C94BB4580910F0281110C94C14589E50E94E31C8111D3
S1234EA00C94C14588E50E94E31C8823D1F00E94D81C672B682B692BA1F00E94CF1C2091B0
S1234EC09707309198074091990750919A070E94E7DD6093A3077093A4078093A50790934A
S1234EE0A60789E50E94E31C8823D1F00E94D81C672B682B692BA1F00E94CF1C20919B07C6
S1234F0030919C0740919D0750919E070E94E7DD6093A7077093A8078093A9079093AA07DE
S1234F2080910F0281110C94C7458AE50E94E31C81110C94C7458AE50E94E31C8823D1F043
S1234F400E94D81C672B682B692BA1F00E94CF1C20919F073091A0074091A1075091A2071E
S1234F600E94E7DD6093AB077093AC078093AD079093AE0780910F0281110C9412468AE5B2
S1234F800E94E31C81110C941246E090AB07F090AC070091AD071091AE072091A7073091D2
S1234FA0A8074091A9075091AA076091A3077091A4078091A5079091A607FFEACF2EF7E09C
S1234FC0DF2E0E94097880E00E94838B80915C0790915D07A0915E07B0915F0780930B0237
S1234FE090930C02A0930D02B0930E028091B3079091B40790932602809325020E947DD7C5
S12350006093BB057093BC058093BD059093BE050E947C8B0C94B84580918807882321F0B8
S123502080918907811127C08EE198E00E94C3B2E7EEFAE08491882341F09091C00095FF3F
S1235040FCCF8093C6003196F5CFECE0F8E08491882341F09091C00095FFFCCF8093C6006F
S12350603196F5CF8091C00085FFFCCF8AE08093C6000C94B8450E944F9387E492E00E949E
S1235080C1D3CE018F509F4F0E949277CF50DF4F688179818A819B81C15FD0406093A3070D
S12350A07093A4078093A5079093A607CB50DF4F288139814A815B81C55FD0402093A707C7
S12350C03093A8074093A9075093AA07C750DF4FE880F9800A811B81C95FD040E092AB079A
S12350E0F092AC070093AD071093AE07EFEACE2EE7E0DE2E0E9409780E943A1680912F02D9
S123510090913002A0913102B091320280930B0290930C02A0930D02B0930E02CB5DDE4F24
S123512019821882C552D140C05DDE4F19821882C053D140212C312C20EA30E0C65DDE4F57
S123514039832883CA52D140612C712CC75DDE4F1882C952D14021E030E02C0F3D1FCB5DA6
S1235160DE4F88819981C552D140280F391FC95DDE4F39832883C752D140C05DDE4FA881CD
S1235180B981C053D140CE5CDE4FB983A883C253D140412C512CC101AA2797FDA095BA2F9A
S12351A0C45CDE4F88839983AA83BB83CC53D140CB5DDE4FA881B981C552D140E9ECF0E057
S12351C0EC0FFD1FAE0FBF1FCC5BDE4FB983A883C454D140CE5CDE4F28813981C253D14055
S12351E0232B89F020E030E040E050E46091AB077091AC078091AD079091AE070E94E7DD28
S12352006B017C0105C0C12CD12CE12CA0E4FA2EC45CDE4F688179818A819B81CC53D140B2
S12352200E9462DFC45DDE4F688379838A839B83CC52D140B301882777FD8095982F0E94A3
S123524062DF4B015C012091A7073091A8074091A9075091AA076091A3077091A407809126
S1235260A5079091A607870176010E948B16C090AB07D090AC07E090AD07F090AE0720E000
S123528030E040E751E4C45DDE4F688179818A819B81CC52D1400E94E7DDC85CDE4F688375
S12352A079838A839B83C853D14020E030E040E451E4C501B4010E94E6DD87017601C85C2B
S12352C0DE4F288139814A815B81C853D1400E948B160E945917C090AB07D090AC07E0908D
S12352E0AD07F090AE07EDE3F4E08491882341F09091C00095FFFCCF8093C6003196F5CF88
S1235300E8E3F4E08491882341F09091C00095FFFCCF8093C6003196F5CF22E030E0B5018D
S1235320A40184E295E00E943316E3E3F4E08491882341F09091C00095FFFCCF8093C6005A
S12353403196F5CF22E030E0C45DDE4F488159816A817B81CC52D14084E295E00E943316DF
S1235360EEE2F4E08491882341F09091C00095FFFCCF8093C6003196F5CF22E030E0B70126
S1235380A60184E295E00E943316ECE2F4E08491882341F09091C00095FFFCCF8093C600F0
S12353A03196F5CFCC5BDE4FE881F981C454D140E40DF51DC082D182E282F382C95DDE4F3A
S12353C0A881B981C752D1408D929D92AD92BD92C95DDE4FB983A883C752D140C45DDE4F2E
S12353E088819981AA81BB81CC52D140C95DDE4FE881F981C752D14084879587A687B787FE
S123540080E090E0A0E8BFE3848F958FA68FB78FCE5CDE4F28813981C253D1402F5F3F4FE0
S1235420CE5CDE4F39832883C253D140C65DDE4F88819981CA52D140680E791E94E0490E0C
S1235440511CA8E04A16510409F0C4CEC05DDE4FE881F981C053D1403296C05DDE4FF98334
S1235460E883C053D140F6EE2F0E311C2CEC221621E03206B1F1C75DDE4F3881C952D140CA
S1235480332381F080EA90E0C65DDE4F99838883CA52D140612C712CC75DDE4F1882C95293
S12354A0D14011C0A0E6BFEFC65DDE4FB983A883CA52D140B0EA6B2E712CB1E0C75DDE4F3C
S12354C0B883C952D140CB5DDE4FE881F981C552D1403896CB5DDE4FF983E883C552D140CF
S12354E03ACE0E9465169E0127533F4FAE014F5F5F4F63E070E084E090E00E94428A3C01BF
S1235500E6EFF7E08491882341F09091C00095FFFCCF8093C6003196F5CFD3014D915D91A6
S12355206D917C9122E030E084E295E00E943316E1EFF7E08491882341F09091C00095FF77
S1235540FCCF8093C6003196F5CFF301448155816681778122E030E084E295E00E943316D2
S1235560ECEEF7E08491882341F09091C00095FFFCCF8093C6003196F5CFD30118964D9181
S12355805D916D917C911B9722E030E084E295E00E9433168091C00085FFFCCF8AE08093E7
S12355A0C600F30104811581268137813058408151816281738170585E01F5EEAF0EB11C2D
S12355C0C12CD12C80E8E82E8FE3F82EC5010E9473D166E973E0C5010E94F0D2D501CC901D
S12355E01196DC9011971296EC9012971396FC90139714960C91149715961C91159716969E
S12356002C91169717963C91179718964C91189719965C9119971A966C911A971B967C9152
S1235620CE018F5F9E4F0E94EBD384E2FE01EF5FFE4FA7E4B2E001900D928A95E1F74E01C9
S1235640B9ED8B0E911CC4010E949277F40160817181828193816093A3077093A4078093AD
S1235660A5079093A60724813581468157812093A7073093A8074093A9075093AA07E09056
S12356808407F09085070091860710918707E092AB07F092AC070093AD071093AE07EFEA51
S12356A0CE2EE7E0DE2E0E940978C3010E9490E30E944F9382E00E94AB930E9462DF2091C1
S12356C096113091971140919811509199110E94C7DE6B017C018E0103501F4F20E030E021
S12356E040E451E46091A3077091A4078091A5079091A6070E94E7DDD8016D937D938D930C
S12357009C93139720E030E040E751E46091A7077091A8078091A9079091AA070E94E6DDF9
S1235720F50160837183828393838091AB079091AC07A091AD07B091AE07F40180839183FF
S1235740A283B3839F928F92BF92AF921F930F932DB73EB7245231090FB6F8943EBF0FBE0E
S12357602DBFADB7BEB7119684E2E7E4F2E001900D928A95E1F70E9454D3A7019601D401B2
S12357806D917D918D919C910E94E6DD2091AB073091AC074091AD075091AE070E94E7DDF1
S12357A07B018C016093AB077093AC078093AD079093AE070FB6F894DEBF0FBECDBF2091EA
S12357C0A7073091A8074091A9075091AA076091A3077091A4078091A5079091A607FFEAD9
S12357E0CF2EF7E0DF2E0E9409780C94B8459091C00095FFFCCF8093C6003196849181117D
S1235800F6CFE3EEF7E08491882341F09091C00095FFFCCF8093C6003196F5CF4091A30707
S12358205091A4076091A5077091A60722E030E084E295E00E943316EEEDF7E08491882343
S123584041F09091C00095FFFCCF8093C6003196F5CF4091A7075091A8076091A9077091BE
S1235860AA0722E030E084E295E00E943316E9EDF7E08491882341F09091C00095FFFCCFBD
S12358808093C6003196F5CF4091AB075091AC076091AD077091AE0722E030E084E295E041
S12358A00E943316E7EDF7E08491882341F09091C00095FFFCCF8093C6003196F5CF0E9417
S12358C065160C94B84510924F070C94B84581E080934F070C94B84585E40E94E31C811114
S12358E002C00E944F93ADE76A2EA4E07A2EB7E98B2EB7E09B2E13EAA12E17E0B12E512C2E
S1235900D3018D913D010E94E31C8823D9F1B3E05B120CC00E94CF1CF50160837183828312
S123592093838FEA97E00E94EA782CC00E94CF1CD4012D913D914D915C910E94E7DDF50158
S12359406083718382839383E090AB07F090AC070091AD071091AE072091A7073091A80792
S12359604091A9075091AA076091A3077091A4078091A5079091A607FFEACF2EF7E0DF2E74
S12359800E9409785394F4E08F0E911C24E0A20EB11C34E05312B4CF0C94B8458DE40E94AE
S12359A0E31C882311F40C94E7440E94CF1C0E942FDF6D36710511F40C949C390CF0A4C039
S12359C06F31710509F48FC3ACF56631710509F433C2C4F46131710509F4E9C134F462309D
S12359E0710508F444C10C94B8456431710509F4EFC10CF01BC26231710511F40C94B93B5C
S1235A000C94B8456A31710509F44AC23CF46831710509F42FC20CF415C23CC26C317105B6
S1235A2009F452C20CF44AC26E31710509F481C20C94B8456335710511F40C94B43B4CF570
S1235A406033710509F41DC454F46032710509F4AEC26A32710509F4CDC30C94B8456135CC
S1235A60710511F40C94933B14F00C94B03B6035710511F00C94B845269A2E9881E0809307
S1235A80100287E995E00E94C3B20E9450B30C94B8456836710511F40C945E3814F56535C0
S1235AA0710511F40C94F13B14F40C94B93B6C35710511F00C94B8452DE734E0CB5DDE4FCD
S1235AC039832883C552D1400EE811E13EE9832E31E1932E42E5A42E41E1B42E312C0C94A6
S1235AE06E3C6A36710511F40C94633B14F40C948F386B36710511F00C94B8451092820750
S1235B00109281070C94B8456E3C710511F40C94DF3F0CF054C06937710511F40C948D3D42
S1235B2014F56337710511F40C94883C74F46037710511F40C947C386237710511F00C9461
S1235B40B845E5EBF4E00C94B23C6737710509F48AC014F00C94883D6537710511F40C9497
S1235B60973C0C94B845693C710511F40C942A3F8CF46E3B710511F40C94583A683C710598
S1235B8011F40C94853E6C38710511F00C94B8450C947E386C3C710511F40C94613F14F024
S1235BA00C94813F6B3C710511F00C94B8450DE714E09EE9E92E91E1F92E0C94523F6F32D5
S1235BC081E0780711F40C94954114F5623E710511F40C94304064F46C3D710511F40C9416
S1235BE0FB3F6D3D710511F40C940A400C94B8456D32A1E07A0711F40C94C14014F00C94D0
S1235C0087416C32714011F40C948B400C94B845673FF1E07F0711F40C94D54194F4653F78
S1235C2031E0730711F40C94CD4114F00C94D2416039714011F00C94B8450E944F930C945F
S1235C40B845603AA3E07A0709F41AC2673EB3E07B0711F40C94D0446835724011F00C9469
S1235C60B8450C94D841E2EAF3E00C94983D0091BF051091C0050E5F1F4F80E50E94E31CBA
S1235C80882379F00E94CF1C0E9434DF6B017C01BB24B394611571058105910531F4B12C91
S1235CA004C0B12CC12CD12C760183E50E94E31C882399F00E94CF1C20E030E04AE754E49B
S1235CC00E9495E10E9434DF6B017C01AA24A394611571058105910509F4A12C6AE270E097
S1235CE0C8010E944DE7009711F0DC011C92F801CF0121912032E1F3B11007C0A11005C03F
S1235D00222319F00E9470B004C086EC97E00E94C3B281E00E9450B00E944F930E947DD72E
S1235D206093BB057093BC058093BD059093BE05C114D104E104F104A9F00E947DD74B01CE
S1235D405C018C0C9D1CAE1CBF1C0E947DD7681579058A059B05C0F40E9423B4811114C039
S1235D600C942E460E9421B4882311F40C94B8450E9423B481110BC00E94269C80E00E940B
S1235D8085240E9450B3F4CF80E00E9450B08091BB07882331F087EB97E00E94C3B20C94AD
S1235DA0B84584EA97E00E94C3B20C94B8458BE997E00E94C3B25F988A989FB7F89480913B
S1235DC008018E7F809308019FBF12980C94B845EBE8F7E08491882341F09091C00095FFD8
S1235DE0FCCF8093C6003196F5CF8091C00085FFFCCF8AE08093C60089EB97E00E94E55A41
S1235E00EDE7F7E08491882341F09091C00095FFFCCF8093C6003196F5CF8091C00085FFE9
S1235E20FCCF8AE08093C6000C94B84589EB97E00E943E5B0C94B84589EB97E00E94025C05
S1235E400C94B8450091BF051091C0050C5F1F4F6AE270E0C8010E944DE7009711F0FC013D
S1235E60108221E041E0B80189EB97E00E94DB5F0C94B84589EB97E00E94065C0E947DD768
S1235E806093B3057093B4058093B5059093B6050C94B84589EB97E00E940D5C0C94B845BC
S1235EA08091BC07882311F40C94B84583E50E94E31C81110C9437460C94B84589EB97E07D
S1235EC00E94B15D0C94B8458091BF059091C0056AE270E004960E944DE78C010097D9F0BD
S1235EE02091C9053091CA0540E6429FC001439F900D11246EE470E081539A4F0E944DE7DE
S1235F0060E270E00E944DE701969093C0058093BF05D8011C926091BF057091C0056C5FF2
S1235F207F4F21E040E089EB97E00E94DB5F0C94B8458091BC07882311F40C94B84560E0A9
S1235F4089EB97E00E946B5F8091BF059091C0056AE270E004960E944DE78C010097D9F032
S1235F602091C9053091CA0540E6429FC001439F900D11246EE470E081539A4F0E944DE75D
S1235F8060E270E00E944DE701969093C0058093BF05F80110826091BF057091C0056C5F6E
S1235FA07F4F89EB97E00E94715C0C94B8458091BB0781110E944F930091BF051091C00574
S1235FC00C5F1F4F6AE270E0C8010E944DE77C0161E270E0C8010E944DE7009719F08C01CD
S1235FE00F5F1F4FE114F10411F0D7011C9280E50E94E31CF82E2091BF053091C005021710
S1236000130708F4F12C8091BC07882311F40C94B84521E02F2541E0B80189EB97E00E946C
S1236020DB5F83E50E94E31C8823B9F02091BF053091C0052017310780F40E94D81CAB01A5
S1236040BC0140933C0A50933D0A60933E0A70933F0A87E899E00E949D4E89EB97E00E94B3
S1236060065CF1100C94B8450E947DD76093B3057093B4058093B5059093B6050C94B84577
S12360808091BF059091C0056AE270E005960E944DE78C010097D9F02091C9053091CA0538
S12360A040E6429FC001439F900D11246EE470E081539A4F0E944DE760E270E00E944DE7C3
S12360C001969093C0058093BF05F80110826091BF057091C0056B5F7F4F89EB97E00E943B
S12360E0FA620C94B8450E947DD76093AF057093B0058093B1059093B2050091B3051091C1
S1236100B4052091B5053091B605601B710B820B930B28EE33E040E050E00E9491E2CA0160
S1236120B9012CE330E040E050E00E9491E27F936F933F932F938EE697E09F938F93CE0167
S123614001969F938F930E9485E7E7EEFAE084910FB6F894DEBF0FBECDBF882349F0909132
S1236160C00095FFFCCF8093C60031968491F5CFFE0131968191882339F09091C00095FF62
S1236180FCCF8093C600F6CF8091C00085FFFCCF8AE08093C600CE0101960E9470B08091F6
S12361A02D11882311F40C94B84510922D110091830710E0000F111F085A1D4ED8016D9182
S12361C07C91882777FD8095982F0E9462DF20913F023091400240914102509142020E94FC
S12361E0C3E0181614F00C94B845F801118210820C94B84583E50E94E31C882311F40C9415
S1236200B8450E94CF1C0E942FDFF62EE72E862F9E2D8C0180E50E94E31C882331F00F3FDA
S1236220110509F010F40C9448460DE010E0E5E4F4E0819191918017910711F40C94B8459A
S123624024E0ED37F207A9F70930110539F48F2D9E2D909382078093810704C017FF02C093
S12362600C94B84561E0802F0E9468D96F2D802F0E94A1D96F2D7E2D802F0E9450D80C94E3
S1236280B84586E50E94E31C81110C944F4686E70E94E31C81110C944F4681E090E0CB5D5C
S12362A0DE4F99838883C552D14008C0CB5DDE4FA881B981C552D140AB2BD1F0EFE1F7E078
S12362C08491882341F09091C00095FFFCCF8093C6003196F5CFEBEEF6E08491882341F085
S12362E09091C00095FFFCCF8093C6003196F5CF8EE60E94E31C8823F1F00E94CF1C0E9426
S12363002FDFCC5ADE4F79836883C455D140645071096F327105B8F0E4ECF6E084918823B4
S123632011F40C94B8459091C00095FFFCCF8093C6003196F3CFEAE0F0E0CC5ADE4FF983AC
S1236340E883C455D14080E00E94B993C05CDE4F6883C054D140CA5BDE4F7883C654D14085
S1236360C85BDE4F8883C854D140C45BDE4F9883CC54D14081E00E94B993362E272EC05BD6
S1236380DE4F8883C055D140CE5ADE4F9883C255D14082E00E94B99382E00E94B9936B01F7
S12363A07C0183E00E94B993CC5CDE4F688379838A839B83C453D14085E40E94E31C8111E0
S12363C00C946C4685E60E94E31C81110C946C46CA5ADE4F19821882C655D14088E50E94B6
S12363E0E31C81112EC088E70E94E31C811129C0C05CDE4FF881C054D140C95DDE4FF883DA
S1236400C752D140CA5BDE4F2881C654D140C75DDE4F2883C952D140C85BDE4F3881C854DB
S1236420D140C65DDE4F3883CA52D140C45BDE4F8881CC54D140C45DDE4F8883CC52D14001
S123644043C00E94CF1C20E030E040E451E40E94E6DDC95DDE4F6883C752D140C75DDE4F21
S12364607883C952D140C65DDE4F8883CA52D140C45DDE4F9883CC52D14020E030E0A90117
S12364800E94C0DE87FF02C00C94764620E030E04CE553E4C95DDE4F6881C752D140C75D12
S12364A0DE4F7881C952D140C65DDE4F8881CA52D140C45DDE4F9881CC52D1400E94C3E025
S12364C0181614F40C94764689E50E94E31C811124C089E70E94E31C81111FC0C05DDE4FD5
S12364E03882C053D140CE5CDE4F2882C253D140C05BDE4F9881C055D140C85CDE4F9883A0
S1236500C853D140CE5ADE4FA881C255D140C45CDE4FA883CC53D14043C00E94CF1C20E06D
S123652030E040E751E40E94E7DDC05DDE4F6883C053D140CE5CDE4F7883C253D140C85C90
S1236540DE4F8883C853D140C45CDE4F9883CC53D14020E030E0A9010E94C0DE87FF02C0F9
S12365600C94844620E030E04CE853E4C05DDE4F6881C053D140CE5CDE4F7881C253D14065
S1236580C85CDE4F8881C853D140C45CDE4F9881CC53D1400E94C3E0181614F40C948446F6
S12365A08CE40E94E31C81110C9492468CE60E94E31C81110C949246CC5BDE4F1982188216
S12365C0C454D14020E030E040E050E4C701B6010E94E7DD2B013C010E944F9387E492E07B
S12365E00E94C1D320E030E040E752E460912F027091300280913102909132020E94C7DEBF
S12366004B015C01CC5CDE4F88819981AA81BB81C453D14089839A83AB83BC8383E897E04E
S12366209F938F93DE0111966D0183017201232D322DC05BDE4F4881C055D140CE5ADE4FDC
S12366405881C255D140C05CDE4F6881C054D140CA5BDE4F7881C654D140C85BDE4F88810F
S1236660C854D140C45BDE4F9881CC54D1400E945A6D0E944F930F900F90CB5DDE4FE8816A
S1236680F981C552D14033970CF01FC120E030E040E752E4609127027091280280912902C0
S12366A090912A020E94C7DE4B015C01CC5CDE4F88819981AA81BB81C453D14089839A8369
S12366C0AB83BC8373E8272E77E0372E3F922F92DE0111966D0183017201C05DDE4F28816D
S12366E0C053D140CE5CDE4F3881C253D140C85CDE4F4881C853D140C45CDE4F5881CC53B1
S1236700D140C95DDE4F6881C752D140C75DDE4F7881C952D140C65DDE4F8881CA52D14002
S1236720C45DDE4F9881CC52D1400E945A6D0E944F9380E00E94B9936093A3077093A40739
S12367408093A5079093A60781E00E94B9936093A7077093A8078093A9079093AA0782E00B
S12367600E94B9936093AB077093AC078093AD079093AE0783E00E94B9936B017C01609300
S1236780AF077093B0078093B1079093B2070E943A160E94591782E00E94B9936093AB07E5
S12367A07093AC078093AD079093AE0782E00E94B99320E030E040E050E40E94E7DDC85B43
S12367C0DE4F688379838A839B83C854D14020E030E040E752E46091270270912802809186
S12367E0290290912A020E94C7DE4B015C01C982DA82EB82FC823F922F92FE0131966F01D3
S1236800C85BDE4FE880F9800A811B81C854D140C05DDE4F2881C053D140CE5CDE4F3881C8
S1236820C253D140C85CDE4F4881C853D140C45CDE4F5881CC53D140C95DDE4F6881C7523D
S1236840D140C75DDE4F7881C952D140C65DDE4F8881CA52D140C45DDE4F9881CC52D14091
S12368600E945A6D0E944F9382E00E94B993C45BDE4F688379838A839B83CC54D140609355
S1236880AB077093AC078093AD079093AE070F900F900F900F90C05BDE4FD982C882C0556F
S12368A0D140CA5BDE4F19821882C654D140CC5BDE4F88819981C454D1400197CE5ADE4F84
S12368C099838883C255D14082C0EBEBF3E08191882309F4DBCE9091C00095FFFCCF8093C4
S12368E0C600F5CFCB5DDE4FA881B981C552D140AB2B09F079C320E030E040E752E46091C1
S12369002F027091300280913102909132020E94C7DE4B015C0183E897E09F938F935FEA07
S1236920C52E57E0D52EC85BDE4FE880F9800A811B81C854D140C05DDE4F2881C053D1408A
S1236940CE5CDE4F3881C253D140C85CDE4F4881C853D140C45CDE4F5881CC53D140C95D3B
S1236960DE4F6881C752D140C75DDE4F7881C952D140C65DDE4F8881CA52D140C45DDE4F89
S12369809881CC52D1400E945A6D0E944F930F900F90CA5ADE4FE881F981C655D140EF2B06
S12369A031F068EE73E080E090E00E94ACD7CC5ADE4F28813981C455D140221633060CF0C7
S12369C021C3CA5BDE4F39822882C654D140C85BDE4FE880F9800A811B81C854D140C05D4B
S12369E0DE4F2881C053D140CE5CDE4F3881C253D140C85CDE4F4881C853D140C45CDE4FD0
S1236A005881CC53D140C95DDE4F6881C752D140C75DDE4F7881C952D140C65DDE4F888134
S1236A20CA52D140C45DDE4F9881CC52D1400E948B16CC5BDE4FA881B981C454D140AB2B96
S1236A4009F4BBC10E947DD71B01B1E02B2233240E947DD727E330E040E050E00E9491E2FD
S1236A600E9460DF4B015C010E947DD728E631E040E050E00E9491E20E9460DF22EE3EE2FD
S1236A8045E652E40E94C7DEC05CDE4F688379838A839B83C054D140C12CD12CCE5ADE4F8B
